{
  "contractName": "Shipping",
  "abi": [
    {
      "anonymous": false,
      "inputs": [
        {
          "indexed": false,
          "internalType": "string",
          "name": "_etat",
          "type": "string"
        }
      ],
      "name": "onEtatChange",
      "type": "event"
    },
    {
      "inputs": [],
      "name": "livreur",
      "outputs": [
        {
          "internalType": "address",
          "name": "",
          "type": "address"
        }
      ],
      "stateMutability": "view",
      "type": "function"
    },
    {
      "inputs": [
        {
          "internalType": "string",
          "name": "_etat",
          "type": "string"
        }
      ],
      "name": "SetShipped",
      "outputs": [],
      "stateMutability": "nonpayable",
      "type": "function"
    },
    {
      "inputs": [
        {
          "internalType": "string",
          "name": "_etat",
          "type": "string"
        }
      ],
      "name": "SetDelivered",
      "outputs": [],
      "stateMutability": "nonpayable",
      "type": "function"
    },
    {
      "inputs": [
        {
          "internalType": "address payable",
          "name": "_livreur",
          "type": "address"
        },
        {
          "internalType": "uint32",
          "name": "_montant",
          "type": "uint32"
        }
      ],
      "name": "Tip",
      "outputs": [],
      "stateMutability": "payable",
      "type": "function"
    }
  ],
  "bytecode": "0x608060405273c71fdbde4938d7605528fd998a7a5f5420eabb6a6000806101000a81548173ffffffffffffffffffffffffffffffffffffffff021916908373ffffffffffffffffffffffffffffffffffffffff1602179055506040518060400160405280600781526020017f50656e64696e6700000000000000000000000000000000000000000000000000815250600190805190602001906100a39291906100b6565b503480156100b057600080fd5b506101ba565b8280546100c290610159565b90600052602060002090601f0160209004810192826100e4576000855561012b565b82601f106100fd57805160ff191683800117855561012b565b8280016001018555821561012b579182015b8281111561012a57825182559160200191906001019061010f565b5b509050610138919061013c565b5090565b5b8082111561015557600081600090555060010161013d565b5090565b6000600282049050600182168061017157607f821691505b602082108114156101855761018461018b565b5b50919050565b7f4e487b7100000000000000000000000000000000000000000000000000000000600052602260045260246000fd5b6105f1806101c96000396000f3fe60806040526004361061003f5760003560e01c806305a3f330146100445780632b14b06e1461006f578063a3fbf68d1461008b578063bc8a3eeb146100b4575b600080fd5b34801561005057600080fd5b506100596100dd565b60405161006691906103d6565b60405180910390f35b610089600480360381019061008491906102ca565b610101565b005b34801561009757600080fd5b506100b260048036038101906100ad9190610306565b610152565b005b3480156100c057600080fd5b506100db60048036038101906100d69190610306565b6101c5565b005b60008054906101000a900473ffffffffffffffffffffffffffffffffffffffff1681565b8173ffffffffffffffffffffffffffffffffffffffff166108fc8263ffffffff169081150290604051600060405180830381858888f1935050505015801561014d573d6000803e3d6000fd5b505050565b6040518060400160405280600981526020017f44656c697665726564000000000000000000000000000000000000000000000081525090507f3a20fcf800819c32fba7e1dbfd711107962759a97aa33ccb03f2ffe20357be0760016040516101ba91906103f1565b60405180910390a150565b6040518060400160405280600781526020017f536869707065640000000000000000000000000000000000000000000000000081525090507f3a20fcf800819c32fba7e1dbfd711107962759a97aa33ccb03f2ffe20357be07600160405161022d91906103f1565b60405180910390a150565b600061024b61024684610444565b610413565b90508281526020810184848401111561026357600080fd5b61026e8482856104ee565b509392505050565b6000813590506102858161058d565b92915050565b600082601f83011261029c57600080fd5b81356102ac848260208601610238565b91505092915050565b6000813590506102c4816105a4565b92915050565b600080604083850312156102dd57600080fd5b60006102eb85828601610276565b92505060206102fc858286016102b5565b9150509250929050565b60006020828403121561031857600080fd5b600082013567ffffffffffffffff81111561033257600080fd5b61033e8482850161028b565b91505092915050565b6103508161049a565b82525050565b60008154610363816104fd565b61036d8186610489565b94506001821660008114610388576001811461039a576103cd565b60ff19831686526020860193506103cd565b6103a385610474565b60005b838110156103c5578154818901526001820191506020810190506103a6565b808801955050505b50505092915050565b60006020820190506103eb6000830184610347565b92915050565b6000602082019050818103600083015261040b8184610356565b905092915050565b6000604051905081810181811067ffffffffffffffff8211171561043a5761043961055e565b5b8060405250919050565b600067ffffffffffffffff82111561045f5761045e61055e565b5b601f19601f8301169050602081019050919050565b60008190508160005260206000209050919050565b600082825260208201905092915050565b60006104a5826104be565b9050919050565b60006104b7826104be565b9050919050565b600073ffffffffffffffffffffffffffffffffffffffff82169050919050565b600063ffffffff82169050919050565b82818337600083830152505050565b6000600282049050600182168061051557607f821691505b602082108114156105295761052861052f565b5b50919050565b7f4e487b7100000000000000000000000000000000000000000000000000000000600052602260045260246000fd5b7f4e487b7100000000000000000000000000000000000000000000000000000000600052604160045260246000fd5b610596816104ac565b81146105a157600080fd5b50565b6105ad816104de565b81146105b857600080fd5b5056fea264697066735822122053e399305e8c8c5ccd0efca349c5dc05e04c9433f0fb1c94e97324a969f9774964736f6c63430008000033",
  "immutableReferences": {},
  "source": "// SPDX-License-Identifier: MIT\r\n\r\npragma solidity ^0.8.0;\r\n\r\ncontract Shipping {\r\n    address public livreur = 0xc71fDbDE4938D7605528FD998a7a5F5420eAbB6A;\r\n    string etat = \"Pending\";\r\n\r\n    function SetShipped(string memory _etat) public{\r\n    _etat = \"Shipped\";\r\n    emit onEtatChange(etat);\r\n    }\r\n\r\n    function SetDelivered(string memory _etat) public{\r\n    _etat = \"Delivered\";\r\n    emit onEtatChange(etat);\r\n    }\r\n\r\n    function Tip(address payable _livreur, uint32 _montant) public payable{\r\n    _livreur.transfer(_montant);\r\n    }\r\n    \r\n    event onEtatChange(string _etat);\r\n    \r\n}",
  "sourcePath": "C:\\Sites\\Blockchain\\contracts\\Shipping.sol",
  "compiler": {
    "name": "solc",
    "version": "0.8.0+commit.c7dfd78e.Emscripten.clang"
  },
  "schemaVersion": "3.4.3",
  "updatedAt": "2021-10-21T13:42:08.630Z",
  "devdoc": {
    "kind": "dev",
    "methods": {},
    "version": 1
  },
  "userdoc": {
    "kind": "user",
    "methods": {},
    "version": 1
  }
}